{
  "contractName": "Pausable",
  "abi": [
    {
      "inputs": [
        {
          "internalType": "bool",
          "name": "paused",
          "type": "bool"
        },
        {
          "internalType": "address",
          "name": "initialOwner",
          "type": "address"
        }
      ],
      "payable": false,
      "stateMutability": "nonpayable",
      "type": "constructor"
    },
    {
      "anonymous": false,
      "inputs": [
        {
          "indexed": true,
          "internalType": "address",
          "name": "account",
          "type": "address"
        }
      ],
      "name": "Pause",
      "type": "event"
    },
    {
      "anonymous": false,
      "inputs": [
        {
          "indexed": true,
          "internalType": "address",
          "name": "account",
          "type": "address"
        }
      ],
      "name": "Unpause",
      "type": "event"
    },
    {
      "constant": false,
      "inputs": [],
      "name": "pause",
      "outputs": [],
      "payable": false,
      "stateMutability": "nonpayable",
      "type": "function"
    },
    {
      "constant": false,
      "inputs": [],
      "name": "unpause",
      "outputs": [],
      "payable": false,
      "stateMutability": "nonpayable",
      "type": "function"
    }
  ],
  "bytecode": "0x608060405234801561001057600080fd5b506040516104873803806104878339818101604052604081101561003357600080fd5b81019080805190602001909291908051906020019092919050505080806000806101000a81548173ffffffffffffffffffffffffffffffffffffffff021916908373ffffffffffffffffffffffffffffffffffffffff1602179055505081600060146101000a81548160ff02191690831515021790555050506103cc806100bb6000396000f3fe608060405234801561001057600080fd5b50600436106100365760003560e01c80633f4ba83a1461003b5780638456cb5914610045575b600080fd5b61004361004f565b005b61004d6101f2565b005b6000809054906101000a900473ffffffffffffffffffffffffffffffffffffffff1673ffffffffffffffffffffffffffffffffffffffff163373ffffffffffffffffffffffffffffffffffffffff1614610111576040517f08c379a00000000000000000000000000000000000000000000000000000000081526004018080602001828103825260118152602001807f4572726f722c206f6e6c79206f776e657200000000000000000000000000000081525060200191505060405180910390fd5b600060149054906101000a900460ff16610193576040517f08c379a00000000000000000000000000000000000000000000000000000000081526004018080602001828103825260148152602001807f4572726f7220726571756972652070617573656400000000000000000000000081525060200191505060405180910390fd5b60008060146101000a81548160ff0219169083151502179055503373ffffffffffffffffffffffffffffffffffffffff167faeb196d352664784d1900b0e7414a8face7d29f4dae8c4b0cf68ed477423bbf460405160405180910390a2565b6000809054906101000a900473ffffffffffffffffffffffffffffffffffffffff1673ffffffffffffffffffffffffffffffffffffffff163373ffffffffffffffffffffffffffffffffffffffff16146102b4576040517f08c379a00000000000000000000000000000000000000000000000000000000081526004018080602001828103825260118152602001807f4572726f722c206f6e6c79206f776e657200000000000000000000000000000081525060200191505060405180910390fd5b600060149054906101000a900460ff1615610337576040517f08c379a00000000000000000000000000000000000000000000000000000000081526004018080602001828103825260188152602001807f4572726f722072657175697265206e6f7420706175736564000000000000000081525060200191505060405180910390fd5b6001600060146101000a81548160ff0219169083151502179055503373ffffffffffffffffffffffffffffffffffffffff167f5ee71a369c8672edded508e624ffc9257fa1ae6886ef32905c18e60196bca39960405160405180910390a256fea265627a7a723158207966ce57de6db12b96a4af1fd1b1942572bc37e025473944463d38ef3c73e79e64736f6c634300050c0032",
  "source": "pragma solidity >=0.4.21 <0.6.0;\n\nimport './Ownable.sol';\n\ncontract Pausable is Ownable {\n  event Pause(address indexed account);\n  event Unpause(address indexed account);\n  bool _paused;\n\n  constructor(bool paused, address initialOwner) Ownable (initialOwner) public {\n        _paused = paused;\n  }\n\n  modifier whenNotPaused() {\n    require(!_paused, \"Error require not paused\");\n    _;\n  }\n  modifier whenPaused() {\n    require(_paused, \"Error require paused\");\n    _;\n  }\n  function pause() public onlyOwner whenNotPaused {\n    _paused = true;\n    emit Pause(msg.sender);\n  }\n\n  function unpause() public onlyOwner whenPaused {\n    _paused = false;\n    emit Unpause(msg.sender);\n  }\n}",
  "sourcePath": "/Users/madelacruzs/_PROJECTS/Blockchain ETH/GitHub/B9Lab-1-Splitter/contracts/Pausable.sol",
  "compiler": {
    "name": "solc",
    "version": "0.5.12+commit.7709ece9.Emscripten.clang"
  },
  "schemaVersion": "3.0.19",
  "updatedAt": "2019-12-08T23:49:45.519Z",
  "devdoc": {
    "methods": {}
  },
  "userdoc": {
    "methods": {}
  }
}