{
  "contractName": "Splitter",
  "abi": [
    {
      "inputs": [
        {
          "internalType": "bool",
          "name": "paused",
          "type": "bool"
        }
      ],
      "payable": false,
      "stateMutability": "nonpayable",
      "type": "constructor"
    },
    {
      "anonymous": false,
      "inputs": [
        {
          "indexed": true,
          "internalType": "address",
          "name": "sender",
          "type": "address"
        },
        {
          "indexed": true,
          "internalType": "address",
          "name": "bob",
          "type": "address"
        },
        {
          "indexed": true,
          "internalType": "address",
          "name": "carol",
          "type": "address"
        },
        {
          "indexed": false,
          "internalType": "uint256",
          "name": "amount",
          "type": "uint256"
        }
      ],
      "name": "LogSplitter",
      "type": "event"
    },
    {
      "anonymous": false,
      "inputs": [
        {
          "indexed": true,
          "internalType": "address",
          "name": "who",
          "type": "address"
        }
      ],
      "name": "LogWithdraw",
      "type": "event"
    },
    {
      "anonymous": false,
      "inputs": [
        {
          "indexed": true,
          "internalType": "address",
          "name": "account",
          "type": "address"
        }
      ],
      "name": "Pause",
      "type": "event"
    },
    {
      "anonymous": false,
      "inputs": [
        {
          "indexed": true,
          "internalType": "address",
          "name": "account",
          "type": "address"
        }
      ],
      "name": "Unpause",
      "type": "event"
    },
    {
      "constant": true,
      "inputs": [
        {
          "internalType": "address",
          "name": "",
          "type": "address"
        }
      ],
      "name": "balances",
      "outputs": [
        {
          "internalType": "uint256",
          "name": "",
          "type": "uint256"
        }
      ],
      "payable": false,
      "stateMutability": "view",
      "type": "function"
    },
    {
      "constant": false,
      "inputs": [],
      "name": "pause",
      "outputs": [],
      "payable": false,
      "stateMutability": "nonpayable",
      "type": "function"
    },
    {
      "constant": false,
      "inputs": [],
      "name": "unpause",
      "outputs": [],
      "payable": false,
      "stateMutability": "nonpayable",
      "type": "function"
    },
    {
      "constant": false,
      "inputs": [
        {
          "internalType": "address",
          "name": "_bob",
          "type": "address"
        },
        {
          "internalType": "address",
          "name": "_carol",
          "type": "address"
        }
      ],
      "name": "splitEth",
      "outputs": [
        {
          "internalType": "bool",
          "name": "success",
          "type": "bool"
        }
      ],
      "payable": true,
      "stateMutability": "payable",
      "type": "function"
    },
    {
      "constant": false,
      "inputs": [
        {
          "internalType": "uint256",
          "name": "amount",
          "type": "uint256"
        }
      ],
      "name": "withdrawFunds",
      "outputs": [
        {
          "internalType": "bool",
          "name": "success",
          "type": "bool"
        }
      ],
      "payable": false,
      "stateMutability": "nonpayable",
      "type": "function"
    }
  ],
  "bytecode": "0x608060405234801561001057600080fd5b50604051610f45380380610f458339818101604052602081101561003357600080fd5b8101908080519060200190929190505050803380806000806101000a81548173ffffffffffffffffffffffffffffffffffffffff021916908373ffffffffffffffffffffffffffffffffffffffff1602179055505081600060146101000a81548160ff021916908315150217905550505050610e91806100b46000396000f3fe60806040526004361061004a5760003560e01c8063155dd5ee1461004f57806327e235e3146100a25780633f4ba83a146101075780638456cb591461011e5780638b6502a114610135575b600080fd5b34801561005b57600080fd5b506100886004803603602081101561007257600080fd5b81019080803590602001909291905050506101b1565b604051808215151515815260200191505060405180910390f35b3480156100ae57600080fd5b506100f1600480360360208110156100c557600080fd5b81019080803573ffffffffffffffffffffffffffffffffffffffff169060200190929190505050610412565b6040518082815260200191505060405180910390f35b34801561011357600080fd5b5061011c61042a565b005b34801561012a57600080fd5b506101336105cd565b005b6101976004803603604081101561014b57600080fd5b81019080803573ffffffffffffffffffffffffffffffffffffffff169060200190929190803573ffffffffffffffffffffffffffffffffffffffff169060200190929190505050610772565b604051808215151515815260200191505060405180910390f35b60008060149054906101000a900460ff1615610235576040517f08c379a00000000000000000000000000000000000000000000000000000000081526004018080602001828103825260188152602001807f4572726f722072657175697265206e6f7420706175736564000000000000000081525060200191505060405180910390fd5b81600160003373ffffffffffffffffffffffffffffffffffffffff1673ffffffffffffffffffffffffffffffffffffffff1681526020019081526020016000205410156102ea576040517f08c379a00000000000000000000000000000000000000000000000000000000081526004018080602001828103825260148152602001807f62616c616e636520696e73756666696369656e7400000000000000000000000081525060200191505060405180910390fd5b61033c82600160003373ffffffffffffffffffffffffffffffffffffffff1673ffffffffffffffffffffffffffffffffffffffff16815260200190815260200160002054610c1090919063ffffffff16565b600160003373ffffffffffffffffffffffffffffffffffffffff1673ffffffffffffffffffffffffffffffffffffffff168152602001908152602001600020819055503373ffffffffffffffffffffffffffffffffffffffff167faf66eb1ff59a99165e990351acac53ab2fbc78bf79381392dd75b57ed2b8c40c60405160405180910390a23373ffffffffffffffffffffffffffffffffffffffff166108fc839081150290604051600060405180830381858888f19350505050158015610408573d6000803e3d6000fd5b5060019050919050565b60016020528060005260406000206000915090505481565b6000809054906101000a900473ffffffffffffffffffffffffffffffffffffffff1673ffffffffffffffffffffffffffffffffffffffff163373ffffffffffffffffffffffffffffffffffffffff16146104ec576040517f08c379a00000000000000000000000000000000000000000000000000000000081526004018080602001828103825260118152602001807f4572726f722c206f6e6c79206f776e657200000000000000000000000000000081525060200191505060405180910390fd5b600060149054906101000a900460ff1661056e576040517f08c379a00000000000000000000000000000000000000000000000000000000081526004018080602001828103825260148152602001807f4572726f7220726571756972652070617573656400000000000000000000000081525060200191505060405180910390fd5b60008060146101000a81548160ff0219169083151502179055503373ffffffffffffffffffffffffffffffffffffffff167faeb196d352664784d1900b0e7414a8face7d29f4dae8c4b0cf68ed477423bbf460405160405180910390a2565b6000809054906101000a900473ffffffffffffffffffffffffffffffffffffffff1673ffffffffffffffffffffffffffffffffffffffff163373ffffffffffffffffffffffffffffffffffffffff161461068f576040517f08c379a00000000000000000000000000000000000000000000000000000000081526004018080602001828103825260118152602001807f4572726f722c206f6e6c79206f776e657200000000000000000000000000000081525060200191505060405180910390fd5b600060149054906101000a900460ff1615610712576040517f08c379a00000000000000000000000000000000000000000000000000000000081526004018080602001828103825260188152602001807f4572726f722072657175697265206e6f7420706175736564000000000000000081525060200191505060405180910390fd5b6001600060146101000a81548160ff0219169083151502179055503373ffffffffffffffffffffffffffffffffffffffff167f5ee71a369c8672edded508e624ffc9257fa1ae6886ef32905c18e60196bca39960405160405180910390a2565b60008060149054906101000a900460ff16156107f6576040517f08c379a00000000000000000000000000000000000000000000000000000000081526004018080602001828103825260188152602001807f4572726f722072657175697265206e6f7420706175736564000000000000000081525060200191505060405180910390fd5b600073ffffffffffffffffffffffffffffffffffffffff168373ffffffffffffffffffffffffffffffffffffffff161415610899576040517f08c379a00000000000000000000000000000000000000000000000000000000081526004018080602001828103825260208152602001807f426f622773206163636f756e74732063616e206e6f7420626520656d7074792e81525060200191505060405180910390fd5b600073ffffffffffffffffffffffffffffffffffffffff168273ffffffffffffffffffffffffffffffffffffffff16141561091f576040517f08c379a0000000000000000000000000000000000000000000000000000000008152600401808060200182810382526022815260200180610e3b6022913960400191505060405180910390fd5b60013411610995576040517f08c379a00000000000000000000000000000000000000000000000000000000081526004018080602001828103825260158152602001807f496e73756666696369656e742062616c616e63652e000000000000000000000081525060200191505060405180910390fd5b60006109ab600234610c9990919063ffffffff16565b90506109ff81600160008773ffffffffffffffffffffffffffffffffffffffff1673ffffffffffffffffffffffffffffffffffffffff16815260200190815260200160002054610d2890919063ffffffff16565b600160008673ffffffffffffffffffffffffffffffffffffffff1673ffffffffffffffffffffffffffffffffffffffff16815260200190815260200160002081905550610a9481600160008673ffffffffffffffffffffffffffffffffffffffff1673ffffffffffffffffffffffffffffffffffffffff16815260200190815260200160002054610d2890919063ffffffff16565b600160008573ffffffffffffffffffffffffffffffffffffffff1673ffffffffffffffffffffffffffffffffffffffff168152602001908152602001600020819055506001610aed600234610db090919063ffffffff16565b1415610b8957610b4560018060003373ffffffffffffffffffffffffffffffffffffffff1673ffffffffffffffffffffffffffffffffffffffff16815260200190815260200160002054610d2890919063ffffffff16565b600160003373ffffffffffffffffffffffffffffffffffffffff1673ffffffffffffffffffffffffffffffffffffffff168152602001908152602001600020819055505b8273ffffffffffffffffffffffffffffffffffffffff168473ffffffffffffffffffffffffffffffffffffffff163373ffffffffffffffffffffffffffffffffffffffff167f79a1faa6297c4fe8e39796a20d92a0fb37a4af24f361e063e7cf35dcae74237a346040518082815260200191505060405180910390a4600191505092915050565b600082821115610c88576040517f08c379a000000000000000000000000000000000000000000000000000000000815260040180806020018281038252601e8152602001807f536166654d6174683a207375627472616374696f6e206f766572666c6f77000081525060200191505060405180910390fd5b600082840390508091505092915050565b6000808211610d10576040517f08c379a000000000000000000000000000000000000000000000000000000000815260040180806020018281038252601a8152602001807f536166654d6174683a206469766973696f6e206279207a65726f00000000000081525060200191505060405180910390fd5b6000828481610d1b57fe5b0490508091505092915050565b600080828401905083811015610da6576040517f08c379a000000000000000000000000000000000000000000000000000000000815260040180806020018281038252601b8152602001807f536166654d6174683a206164646974696f6e206f766572666c6f77000000000081525060200191505060405180910390fd5b8091505092915050565b600080821415610e28576040517f08c379a00000000000000000000000000000000000000000000000000000000081526004018080602001828103825260188152602001807f536166654d6174683a206d6f64756c6f206279207a65726f000000000000000081525060200191505060405180910390fd5b818381610e3157fe5b0690509291505056fe4361726f6c2773206163636f756e74732063616e206e6f7420626520656d7074792ea265627a7a72315820f8bdd0e347cde1bf9bc599a2252b7f3c4fd11994907e66b4c8e546920d101f8664736f6c634300050c0032",
  "source": "pragma solidity >=0.4.21 <0.6.0;\n\nimport './SafeMath.sol';\nimport './Pausable.sol';\n\ncontract Splitter is Pausable { \n    using SafeMath for uint; \n\n    mapping (address => uint) public balances;\n\n    event LogSplitter(address indexed sender, address indexed bob, address indexed carol, uint amount);\n    event LogWithdraw(address indexed who);\n\n    constructor(bool paused) public Pausable(paused, msg.sender) {\n    }\n\n    //Split ETH from Alice\n    function splitEth(address _bob, address _carol) public whenNotPaused payable returns (bool success){\n        require(_bob != address(0),\"Bob's accounts can not be empty.\");\n        require(_carol != address(0), \"Carol's accounts can not be empty.\");\n\n        require(msg.value > 1,\"Insufficient balance.\");\n\n        //Split\n        uint half = msg.value.div(2);\n\n        // add half Bob & Carol\n        balances[_bob] = balances[_bob].add(half);\n        balances[_carol] = balances[_carol].add(half);\n\n        if (msg.value.mod(2) == 1) {\n            //remainder for sender.\n            balances[msg.sender] = balances[msg.sender].add(1);\n        }\n        emit LogSplitter(msg.sender, _bob, _carol, msg.value);\n        return true;\n    }\n    \n    // The Solidity Withdrawal Pattern. Blog's Rob Hitchens\n    function withdrawFunds(uint amount) public whenNotPaused returns (bool success){ \n        // guards up front  \n        require(balances[msg.sender] >= amount,\"balance insufficient\"); \n        // transfer\n        // balances[msg.sender] -= amount;     \n        balances[msg.sender] = balances[msg.sender].sub(amount);   \n        emit LogWithdraw(msg.sender);\n        msg.sender.transfer(amount);\n        return true;\n    }\n}\n",
  "sourcePath": "/Users/madelacruzs/_PROJECTS/Blockchain ETH/GitHub/B9Lab-1-Splitter/contracts/Splitter.sol",
  "compiler": {
    "name": "solc",
    "version": "0.5.12+commit.7709ece9.Emscripten.clang"
  },
  "schemaVersion": "3.0.19",
  "updatedAt": "2019-12-08T23:49:45.525Z",
  "devdoc": {
    "methods": {}
  },
  "userdoc": {
    "methods": {}
  }
}