{
  "contractName": "Splitter",
  "abi": [
    {
      "constant": true,
      "inputs": [],
      "name": "owner",
      "outputs": [
        {
          "name": "",
          "type": "address"
        }
      ],
      "payable": false,
      "stateMutability": "view",
      "type": "function"
    },
    {
      "inputs": [],
      "payable": false,
      "stateMutability": "nonpayable",
      "type": "constructor"
    },
    {
      "constant": true,
      "inputs": [],
      "name": "getBalance",
      "outputs": [
        {
          "name": "",
          "type": "uint256"
        }
      ],
      "payable": false,
      "stateMutability": "view",
      "type": "function"
    },
    {
      "constant": true,
      "inputs": [
        {
          "name": "_user",
          "type": "address"
        }
      ],
      "name": "getBalanceByAddress",
      "outputs": [
        {
          "name": "",
          "type": "uint256"
        }
      ],
      "payable": false,
      "stateMutability": "view",
      "type": "function"
    },
    {
      "constant": false,
      "inputs": [
        {
          "name": "_bob",
          "type": "address"
        },
        {
          "name": "_carol",
          "type": "address"
        }
      ],
      "name": "splitEth",
      "outputs": [
        {
          "name": "",
          "type": "bool"
        }
      ],
      "payable": true,
      "stateMutability": "payable",
      "type": "function"
    }
  ],
  "bytecode": "0x608060405234801561001057600080fd5b50336000806101000a81548173ffffffffffffffffffffffffffffffffffffffff021916908373ffffffffffffffffffffffffffffffffffffffff1602179055506104bd806100606000396000f3fe608060405260043610610062576000357c0100000000000000000000000000000000000000000000000000000000900463ffffffff16806312065fe014610067578063136d6a39146100925780638b6502a1146100f75780638da5cb5b14610173575b600080fd5b34801561007357600080fd5b5061007c6101ca565b6040518082815260200191505060405180910390f35b34801561009e57600080fd5b506100e1600480360360208110156100b557600080fd5b81019080803573ffffffffffffffffffffffffffffffffffffffff1690602001909291905050506101d4565b6040518082815260200191505060405180910390f35b6101596004803603604081101561010d57600080fd5b81019080803573ffffffffffffffffffffffffffffffffffffffff169060200190929190803573ffffffffffffffffffffffffffffffffffffffff16906020019092919050505061021d565b604051808215151515815260200191505060405180910390f35b34801561017f57600080fd5b5061018861046c565b604051808273ffffffffffffffffffffffffffffffffffffffff1673ffffffffffffffffffffffffffffffffffffffff16815260200191505060405180910390f35b6000600254905090565b6000600160008373ffffffffffffffffffffffffffffffffffffffff1673ffffffffffffffffffffffffffffffffffffffff168152602001908152602001600020549050919050565b60008073ffffffffffffffffffffffffffffffffffffffff168373ffffffffffffffffffffffffffffffffffffffff16141580156102885750600073ffffffffffffffffffffffffffffffffffffffff168273ffffffffffffffffffffffffffffffffffffffff1614155b1515610322576040517f08c379a00000000000000000000000000000000000000000000000000000000081526004018080602001828103825260298152602001807f426f6220616e64204361726f6c2773206163636f756e74732063616e206e6f7481526020017f20626520656d707479000000000000000000000000000000000000000000000081525060400191505060405180910390fd5b60003411151561039a576040517f08c379a00000000000000000000000000000000000000000000000000000000081526004018080602001828103825260118152602001807f457468657220697320726571756972656400000000000000000000000000000081525060200191505060405180910390fd5b60006002348115156103a857fe5b04905080600160008673ffffffffffffffffffffffffffffffffffffffff1673ffffffffffffffffffffffffffffffffffffffff1681526020019081526020016000206000828254019250508190555080600160008573ffffffffffffffffffffffffffffffffffffffff1673ffffffffffffffffffffffffffffffffffffffff1681526020019081526020016000206000828254019250508190555060023481151561045157fe5b06600260008282540192505081905550600191505092915050565b6000809054906101000a900473ffffffffffffffffffffffffffffffffffffffff168156fea165627a7a723058207801a9b88dd71b7ff58dd3e17b09403da8de5397759b13ea4b8e9b8389cfc7d50029",
  "source": "pragma solidity ^0.5.0;\n\ncontract Splitter {\n    address public owner;\n    mapping (address => uint) balances;\n    uint balance;\n\n    //Only Owner modifier\n    modifier onlyOwner() {\n        if (msg.sender == owner) _;\n    }\n\n    constructor() public {\n        owner = msg.sender;\n    }\n\n    // Balance of the Smart Contract\n    function getBalance() public view returns (uint) {\n        return balance;\n    }\n\n    //Get Balance By Address\n    function getBalanceByAddress(address _user) public view returns (uint) {\n        return balances[_user];\n    }\n\n    //Split ETH from Alice\n    function splitEth(address _bob, address _carol) public payable returns (bool){\n        require(_bob != address(0) && _carol != address(0), \"Bob and Carol's accounts can not be empty\");\n        require(msg.value > 0,\"Ether is required\");\n\n        //Split\n        uint half = msg.value / 2;\n\n        balances[_bob] += half;\n        balances[_carol] += half;\n\n        //residue\n        balance += msg.value % 2;\n\n        return true;\n    }\n\n}\n",
  "sourcePath": "/Users/madelacruzs/_PROJECTS/Blockchain ETH/B9Lab/Project-1-Splitter/contracts/Splitter.sol",
  "compiler": {
    "name": "solc",
    "version": "0.5.0+commit.1d4f565a.Emscripten.clang"
  },
  "schemaVersion": "3.0.3",
  "updatedAt": "2019-04-24T11:28:59.745Z",
  "devdoc": {
    "methods": {}
  },
  "userdoc": {
    "methods": {}
  }
}